{
  "contractName": "SmartCityCrowdsale",
  "abi": [
    {
      "constant": true,
      "inputs": [],
      "name": "SECOND_PHASE_MAX_SPAN",
      "outputs": [
        {
          "name": "",
          "type": "uint256"
        }
      ],
      "payable": false,
      "stateMutability": "view",
      "type": "function"
    },
    {
      "constant": true,
      "inputs": [],
      "name": "fixedPrice",
      "outputs": [
        {
          "name": "",
          "type": "uint256"
        }
      ],
      "payable": false,
      "stateMutability": "view",
      "type": "function"
    },
    {
      "constant": true,
      "inputs": [],
      "name": "totalAccounted",
      "outputs": [
        {
          "name": "",
          "type": "uint256"
        }
      ],
      "payable": false,
      "stateMutability": "view",
      "type": "function"
    },
    {
      "constant": true,
      "inputs": [],
      "name": "endTime",
      "outputs": [
        {
          "name": "",
          "type": "uint256"
        }
      ],
      "payable": false,
      "stateMutability": "view",
      "type": "function"
    },
    {
      "constant": true,
      "inputs": [],
      "name": "DIVISOR",
      "outputs": [
        {
          "name": "",
          "type": "uint256"
        }
      ],
      "payable": false,
      "stateMutability": "view",
      "type": "function"
    },
    {
      "constant": true,
      "inputs": [],
      "name": "FACTOR",
      "outputs": [
        {
          "name": "",
          "type": "uint256"
        }
      ],
      "payable": false,
      "stateMutability": "view",
      "type": "function"
    },
    {
      "constant": true,
      "inputs": [],
      "name": "campaignEnded",
      "outputs": [
        {
          "name": "",
          "type": "bool"
        }
      ],
      "payable": false,
      "stateMutability": "view",
      "type": "function"
    },
    {
      "constant": true,
      "inputs": [
        {
          "name": "",
          "type": "address"
        }
      ],
      "name": "buyins",
      "outputs": [
        {
          "name": "accounted",
          "type": "uint256"
        },
        {
          "name": "received",
          "type": "uint256"
        }
      ],
      "payable": false,
      "stateMutability": "view",
      "type": "function"
    },
    {
      "constant": true,
      "inputs": [],
      "name": "secondPhaseStartTime",
      "outputs": [
        {
          "name": "",
          "type": "uint256"
        }
      ],
      "payable": false,
      "stateMutability": "view",
      "type": "function"
    },
    {
      "constant": true,
      "inputs": [],
      "name": "DUST_LIMIT",
      "outputs": [
        {
          "name": "",
          "type": "uint256"
        }
      ],
      "payable": false,
      "stateMutability": "view",
      "type": "function"
    },
    {
      "constant": true,
      "inputs": [],
      "name": "FUNDING_GOAL",
      "outputs": [
        {
          "name": "",
          "type": "uint256"
        }
      ],
      "payable": false,
      "stateMutability": "view",
      "type": "function"
    },
    {
      "constant": true,
      "inputs": [],
      "name": "auctionSuccessBonus",
      "outputs": [
        {
          "name": "",
          "type": "uint256"
        }
      ],
      "payable": false,
      "stateMutability": "view",
      "type": "function"
    },
    {
      "constant": true,
      "inputs": [],
      "name": "totalFinalised",
      "outputs": [
        {
          "name": "",
          "type": "uint256"
        }
      ],
      "payable": false,
      "stateMutability": "view",
      "type": "function"
    },
    {
      "constant": true,
      "inputs": [],
      "name": "wallet",
      "outputs": [
        {
          "name": "",
          "type": "address"
        }
      ],
      "payable": false,
      "stateMutability": "view",
      "type": "function"
    },
    {
      "constant": true,
      "inputs": [],
      "name": "firstPhaseEndTime",
      "outputs": [
        {
          "name": "",
          "type": "uint256"
        }
      ],
      "payable": false,
      "stateMutability": "view",
      "type": "function"
    },
    {
      "constant": true,
      "inputs": [],
      "name": "tokenContract",
      "outputs": [
        {
          "name": "",
          "type": "address"
        }
      ],
      "payable": false,
      "stateMutability": "view",
      "type": "function"
    },
    {
      "constant": true,
      "inputs": [],
      "name": "paused",
      "outputs": [
        {
          "name": "",
          "type": "bool"
        }
      ],
      "payable": false,
      "stateMutability": "view",
      "type": "function"
    },
    {
      "constant": true,
      "inputs": [],
      "name": "FIRST_PHASE_MAX_SPAN",
      "outputs": [
        {
          "name": "",
          "type": "uint256"
        }
      ],
      "payable": false,
      "stateMutability": "view",
      "type": "function"
    },
    {
      "constant": true,
      "inputs": [],
      "name": "tokenCapPhaseOne",
      "outputs": [
        {
          "name": "",
          "type": "uint256"
        }
      ],
      "payable": false,
      "stateMutability": "view",
      "type": "function"
    },
    {
      "constant": true,
      "inputs": [],
      "name": "TOKEN_MIN_PRICE_THRESHOLD",
      "outputs": [
        {
          "name": "",
          "type": "uint256"
        }
      ],
      "payable": false,
      "stateMutability": "view",
      "type": "function"
    },
    {
      "constant": true,
      "inputs": [],
      "name": "startTime",
      "outputs": [
        {
          "name": "",
          "type": "uint256"
        }
      ],
      "payable": false,
      "stateMutability": "view",
      "type": "function"
    },
    {
      "constant": true,
      "inputs": [],
      "name": "SUCCESS_BONUS",
      "outputs": [
        {
          "name": "",
          "type": "uint256"
        }
      ],
      "payable": false,
      "stateMutability": "view",
      "type": "function"
    },
    {
      "constant": true,
      "inputs": [
        {
          "name": "",
          "type": "address"
        }
      ],
      "name": "purchases",
      "outputs": [
        {
          "name": "",
          "type": "uint256"
        }
      ],
      "payable": false,
      "stateMutability": "view",
      "type": "function"
    },
    {
      "constant": true,
      "inputs": [],
      "name": "owner",
      "outputs": [
        {
          "name": "",
          "type": "address"
        }
      ],
      "payable": false,
      "stateMutability": "view",
      "type": "function"
    },
    {
      "constant": true,
      "inputs": [],
      "name": "BONUS_DURATION",
      "outputs": [
        {
          "name": "",
          "type": "uint256"
        }
      ],
      "payable": false,
      "stateMutability": "view",
      "type": "function"
    },
    {
      "constant": true,
      "inputs": [],
      "name": "auctionEndPrice",
      "outputs": [
        {
          "name": "",
          "type": "uint256"
        }
      ],
      "payable": false,
      "stateMutability": "view",
      "type": "function"
    },
    {
      "constant": true,
      "inputs": [],
      "name": "totalReceived",
      "outputs": [
        {
          "name": "",
          "type": "uint256"
        }
      ],
      "payable": false,
      "stateMutability": "view",
      "type": "function"
    },
    {
      "constant": true,
      "inputs": [],
      "name": "tokenCapPhaseTwo",
      "outputs": [
        {
          "name": "",
          "type": "uint256"
        }
      ],
      "payable": false,
      "stateMutability": "view",
      "type": "function"
    },
    {
      "constant": true,
      "inputs": [],
      "name": "tokensPurchased",
      "outputs": [
        {
          "name": "",
          "type": "uint256"
        }
      ],
      "payable": false,
      "stateMutability": "view",
      "type": "function"
    },
    {
      "constant": true,
      "inputs": [],
      "name": "currentBonus",
      "outputs": [
        {
          "name": "",
          "type": "uint256"
        }
      ],
      "payable": false,
      "stateMutability": "view",
      "type": "function"
    },
    {
      "constant": true,
      "inputs": [],
      "name": "SECOND_PHASE_PRICE_FACTOR",
      "outputs": [
        {
          "name": "",
          "type": "uint256"
        }
      ],
      "payable": false,
      "stateMutability": "view",
      "type": "function"
    },
    {
      "inputs": [
        {
          "name": "_tokenAddress",
          "type": "address"
        },
        {
          "name": "_owner",
          "type": "address"
        },
        {
          "name": "_walletAddress",
          "type": "address"
        },
        {
          "name": "_startTime",
          "type": "uint256"
        },
        {
          "name": "_tokenCapPhaseOne",
          "type": "uint256"
        },
        {
          "name": "_tokenCapPhaseTwo",
          "type": "uint256"
        }
      ],
      "payable": false,
      "stateMutability": "nonpayable",
      "type": "constructor"
    },
    {
      "payable": true,
      "stateMutability": "payable",
      "type": "fallback"
    },
    {
      "anonymous": false,
      "inputs": [
        {
          "indexed": true,
          "name": "receiver",
          "type": "address"
        },
        {
          "indexed": false,
          "name": "accounted",
          "type": "uint256"
        },
        {
          "indexed": false,
          "name": "received",
          "type": "uint256"
        },
        {
          "indexed": false,
          "name": "price",
          "type": "uint256"
        }
      ],
      "name": "Buyin",
      "type": "event"
    },
    {
      "anonymous": false,
      "inputs": [
        {
          "indexed": false,
          "name": "price",
          "type": "uint256"
        }
      ],
      "name": "PhaseOneEnded",
      "type": "event"
    },
    {
      "anonymous": false,
      "inputs": [
        {
          "indexed": false,
          "name": "fixedPrice",
          "type": "uint256"
        }
      ],
      "name": "PhaseTwoStared",
      "type": "event"
    },
    {
      "anonymous": false,
      "inputs": [
        {
          "indexed": true,
          "name": "receiver",
          "type": "address"
        },
        {
          "indexed": false,
          "name": "received",
          "type": "uint256"
        },
        {
          "indexed": false,
          "name": "tokens",
          "type": "uint256"
        }
      ],
      "name": "Invested",
      "type": "event"
    },
    {
      "anonymous": false,
      "inputs": [
        {
          "indexed": false,
          "name": "goalReached",
          "type": "bool"
        }
      ],
      "name": "Ended",
      "type": "event"
    },
    {
      "anonymous": false,
      "inputs": [
        {
          "indexed": true,
          "name": "receiver",
          "type": "address"
        },
        {
          "indexed": false,
          "name": "tokens",
          "type": "uint256"
        }
      ],
      "name": "Finalised",
      "type": "event"
    },
    {
      "anonymous": false,
      "inputs": [],
      "name": "Retired",
      "type": "event"
    },
    {
      "constant": false,
      "inputs": [],
      "name": "buyin",
      "outputs": [],
      "payable": true,
      "stateMutability": "payable",
      "type": "function"
    },
    {
      "constant": false,
      "inputs": [
        {
          "name": "_receiver",
          "type": "address"
        }
      ],
      "name": "buyinAs",
      "outputs": [],
      "payable": true,
      "stateMutability": "payable",
      "type": "function"
    },
    {
      "constant": true,
      "inputs": [],
      "name": "calculateEndTime",
      "outputs": [
        {
          "name": "",
          "type": "uint256"
        }
      ],
      "payable": false,
      "stateMutability": "view",
      "type": "function"
    },
    {
      "constant": true,
      "inputs": [],
      "name": "currentPrice",
      "outputs": [
        {
          "name": "weiPerIndivisibleTokenPart",
          "type": "uint256"
        }
      ],
      "payable": false,
      "stateMutability": "view",
      "type": "function"
    },
    {
      "constant": true,
      "inputs": [],
      "name": "tokensAvailable",
      "outputs": [
        {
          "name": "tokens",
          "type": "uint256"
        }
      ],
      "payable": false,
      "stateMutability": "view",
      "type": "function"
    },
    {
      "constant": true,
      "inputs": [],
      "name": "maxPurchase",
      "outputs": [
        {
          "name": "spend",
          "type": "uint256"
        }
      ],
      "payable": false,
      "stateMutability": "view",
      "type": "function"
    },
    {
      "constant": true,
      "inputs": [
        {
          "name": "_value",
          "type": "uint256"
        }
      ],
      "name": "theDeal",
      "outputs": [
        {
          "name": "accounted",
          "type": "uint256"
        },
        {
          "name": "refund",
          "type": "bool"
        },
        {
          "name": "price",
          "type": "uint256"
        }
      ],
      "payable": false,
      "stateMutability": "view",
      "type": "function"
    },
    {
      "constant": true,
      "inputs": [
        {
          "name": "_value",
          "type": "uint256"
        }
      ],
      "name": "auctionBonus",
      "outputs": [
        {
          "name": "extra",
          "type": "uint256"
        }
      ],
      "payable": false,
      "stateMutability": "view",
      "type": "function"
    },
    {
      "constant": false,
      "inputs": [],
      "name": "finaliseFirstPhase",
      "outputs": [
        {
          "name": "",
          "type": "uint256"
        }
      ],
      "payable": false,
      "stateMutability": "nonpayable",
      "type": "function"
    },
    {
      "constant": false,
      "inputs": [],
      "name": "invest",
      "outputs": [],
      "payable": true,
      "stateMutability": "payable",
      "type": "function"
    },
    {
      "constant": false,
      "inputs": [
        {
          "name": "_receiver",
          "type": "address"
        }
      ],
      "name": "investAs",
      "outputs": [],
      "payable": true,
      "stateMutability": "payable",
      "type": "function"
    },
    {
      "constant": true,
      "inputs": [
        {
          "name": "_receiver",
          "type": "address"
        },
        {
          "name": "_value",
          "type": "uint256"
        }
      ],
      "name": "getTokens",
      "outputs": [
        {
          "name": "tokensCnt",
          "type": "uint256"
        }
      ],
      "payable": false,
      "stateMutability": "view",
      "type": "function"
    },
    {
      "constant": true,
      "inputs": [
        {
          "name": "_receiver",
          "type": "address"
        }
      ],
      "name": "maxTokenPurchase",
      "outputs": [
        {
          "name": "spend",
          "type": "uint256"
        }
      ],
      "payable": false,
      "stateMutability": "view",
      "type": "function"
    },
    {
      "constant": false,
      "inputs": [],
      "name": "finalise",
      "outputs": [],
      "payable": false,
      "stateMutability": "nonpayable",
      "type": "function"
    },
    {
      "constant": false,
      "inputs": [
        {
          "name": "_receiver",
          "type": "address"
        }
      ],
      "name": "finaliseAs",
      "outputs": [],
      "payable": false,
      "stateMutability": "nonpayable",
      "type": "function"
    },
    {
      "constant": false,
      "inputs": [
        {
          "name": "_paused",
          "type": "bool"
        }
      ],
      "name": "setPaused",
      "outputs": [],
      "payable": false,
      "stateMutability": "nonpayable",
      "type": "function"
    },
    {
      "constant": false,
      "inputs": [],
      "name": "drain",
      "outputs": [],
      "payable": false,
      "stateMutability": "nonpayable",
      "type": "function"
    },
    {
      "constant": true,
      "inputs": [],
      "name": "isActive",
      "outputs": [
        {
          "name": "",
          "type": "bool"
        }
      ],
      "payable": false,
      "stateMutability": "view",
      "type": "function"
    },
    {
      "constant": true,
      "inputs": [],
      "name": "allFinalised",
      "outputs": [
        {
          "name": "",
          "type": "bool"
        }
      ],
      "payable": false,
      "stateMutability": "view",
      "type": "function"
    }
  ],
  "bytecode": "0x60606040526000600255600060035560006004556000600555600f600b556000600c556000600d60006101000a81548160ff0219169083151502179055506000600d60016101000a81548160ff02191690831515021790555034156200006457600080fd5b60405160c08062002cbf8339810160405280805190602001909190805190602001909190805190602001909190805190602001909190805190602001909190805190602001909190505085600d60026101000a81548173ffffffffffffffffffffffffffffffffffffffff021916908373ffffffffffffffffffffffffffffffffffffffff16021790555083600f60006101000a81548173ffffffffffffffffffffffffffffffffffffffff021916908373ffffffffffffffffffffffffffffffffffffffff16021790555084600e60006101000a81548173ffffffffffffffffffffffffffffffffffffffff021916908373ffffffffffffffffffffffffffffffffffffffff16021790555082601081905550620001a0621baf80601054620001fa6401000000000262002a11179091906401000000009004565b600681905550643afff4417f600781905550620001da622b8180600754620001fa6401000000000262002a11179091906401000000009004565b600881905550816011819055508060128190555050505050505062000219565b60008082840190508381101515156200020f57fe5b8091505092915050565b612a9680620002296000396000f30060606040526004361061025c576000357c0100000000000000000000000000000000000000000000000000000000900463ffffffff16806315cd8e0b146102c857806316c38b3c146102f15780631af217ab146103165780631efba6c21461036357806322f3e2d41461038c5780632964e4e6146103b95780632c512d6e146103e25780633197cbb6146104385780633410fe6e1461046157806335815b951461048a5780633bc47fbe146104b35780633f8d9568146104e05780634217073614610534578063421934731461055d57806342e49d5a1461058657806344af946f146105af5780634acd058e146105d85780634ccb908f1461060f5780634ed767a114610638578063521eb2731461066157806352b5e85c146106b657806355a373d6146106df5780635c975abb146107345780635e2ea5bd146107615780635e73dd371461078a57806360659a92146107b357806369766079146107dc57806377fcc493146107e657806378e979251461080f5780637eb312b114610838578063804b55d514610861578063842a77d31461089a5780638da5cb5b146108e7578063977b055b1461093c5780639890220b146109655780639d1b464a1461097a578063a013ad54146109a3578063a04a6ac8146109cc578063a3c2c462146109f5578063a439926314610a1e578063b3c7d09714610a33578063bc52b43b14610a7c578063c384521f14610aaa578063cc4d819c14610ad3578063deb5273814610afc578063e8b5e51f14610b25578063eca73f6414610b2f578063f3f9240b14610b58578063f450d53a14610b86578063ff615b8714610bb3575b600d60009054906101000a900460ff1615151561027857600080fd5b600d60019054906101000a900460ff1615151561029457600080fd5b60105442101580156102a7575060065442105b156102bb576102b63334610bdc565b6102c6565b6102c53334610ed2565b5b005b34156102d357600080fd5b6102db6111e8565b6040518082815260200191505060405180910390f35b34156102fc57600080fd5b610314600480803515159060200190919050506111ef565b005b341561032157600080fd5b61034d600480803573ffffffffffffffffffffffffffffffffffffffff16906020019091905050611268565b6040518082815260200191505060405180910390f35b341561036e57600080fd5b61037661137c565b6040518082815260200191505060405180910390f35b341561039757600080fd5b61039f611382565b604051808215151515815260200191505060405180910390f35b34156103c457600080fd5b6103cc61139c565b6040518082815260200191505060405180910390f35b34156103ed57600080fd5b610422600480803573ffffffffffffffffffffffffffffffffffffffff169060200190919080359060200190919050506113a2565b6040518082815260200191505060405180910390f35b341561044357600080fd5b61044b611462565b6040518082815260200191505060405180910390f35b341561046c57600080fd5b610474611468565b6040518082815260200191505060405180910390f35b341561049557600080fd5b61049d61146f565b6040518082815260200191505060405180910390f35b34156104be57600080fd5b6104c661147a565b604051808215151515815260200191505060405180910390f35b34156104eb57600080fd5b610517600480803573ffffffffffffffffffffffffffffffffffffffff1690602001909190505061148d565b604051808381526020018281526020019250505060405180910390f35b341561053f57600080fd5b6105476114b1565b6040518082815260200191505060405180910390f35b341561056857600080fd5b6105706114b7565b6040518082815260200191505060405180910390f35b341561059157600080fd5b6105996114c2565b6040518082815260200191505060405180910390f35b34156105ba57600080fd5b6105c26114d0565b6040518082815260200191505060405180910390f35b34156105e357600080fd5b6105f960048080359060200190919050506115ed565b6040518082815260200191505060405180910390f35b341561061a57600080fd5b610622611658565b6040518082815260200191505060405180910390f35b341561064357600080fd5b61064b61165e565b6040518082815260200191505060405180910390f35b341561066c57600080fd5b610674611664565b604051808273ffffffffffffffffffffffffffffffffffffffff1673ffffffffffffffffffffffffffffffffffffffff16815260200191505060405180910390f35b34156106c157600080fd5b6106c961168a565b6040518082815260200191505060405180910390f35b34156106ea57600080fd5b6106f2611690565b604051808273ffffffffffffffffffffffffffffffffffffffff1673ffffffffffffffffffffffffffffffffffffffff16815260200191505060405180910390f35b341561073f57600080fd5b6107476116b6565b604051808215151515815260200191505060405180910390f35b341561076c57600080fd5b6107746116c9565b6040518082815260200191505060405180910390f35b341561079557600080fd5b61079d6116d0565b6040518082815260200191505060405180910390f35b34156107be57600080fd5b6107c66116d6565b6040518082815260200191505060405180910390f35b6107e4611761565b005b34156107f157600080fd5b6107f96117d9565b6040518082815260200191505060405180910390f35b341561081a57600080fd5b6108226117e1565b6040518082815260200191505060405180910390f35b341561084357600080fd5b61084b6117e7565b6040518082815260200191505060405180910390f35b341561086c57600080fd5b610898600480803573ffffffffffffffffffffffffffffffffffffffff169060200190919050506117ec565b005b34156108a557600080fd5b6108d1600480803573ffffffffffffffffffffffffffffffffffffffff16906020019091905050611ede565b6040518082815260200191505060405180910390f35b34156108f257600080fd5b6108fa611ef6565b604051808273ffffffffffffffffffffffffffffffffffffffff1673ffffffffffffffffffffffffffffffffffffffff16815260200191505060405180910390f35b341561094757600080fd5b61094f611f1c565b6040518082815260200191505060405180910390f35b341561097057600080fd5b610978611f8d565b005b341561098557600080fd5b61098d612064565b6040518082815260200191505060405180910390f35b34156109ae57600080fd5b6109b6612150565b6040518082815260200191505060405180910390f35b34156109d757600080fd5b6109df612155565b6040518082815260200191505060405180910390f35b3415610a0057600080fd5b610a0861215b565b6040518082815260200191505060405180910390f35b3415610a2957600080fd5b610a31612161565b005b3415610a3e57600080fd5b610a546004808035906020019091905050612237565b6040518084815260200183151515158152602001828152602001935050505060405180910390f35b610aa8600480803573ffffffffffffffffffffffffffffffffffffffff169060200190919050506122d2565b005b3415610ab557600080fd5b610abd612387565b6040518082815260200191505060405180910390f35b3415610ade57600080fd5b610ae661238d565b6040518082815260200191505060405180910390f35b3415610b0757600080fd5b610b0f612393565b6040518082815260200191505060405180910390f35b610b2d612889565b005b3415610b3a57600080fd5b610b42612901565b6040518082815260200191505060405180910390f35b610b84600480803573ffffffffffffffffffffffffffffffffffffffff16906020019091905050612907565b005b3415610b9157600080fd5b610b996129bc565b604051808215151515815260200191505060405180910390f35b3415610bbe57600080fd5b610bc66129d8565b6040518082815260200191505060405180910390f35b6000806000806000600b541115610c7257610c1762015180610c09601054426129dd90919063ffffffff16565b6129f690919063ffffffff16565b9350600f84108015610c3e5750600b54610c3b85600f6129dd90919063ffffffff16565b14155b15610c5e57610c5784600f6129dd90919063ffffffff16565b600b819055505b600f84101515610c71576000600b819055505b5b610c7b85612237565b80935081945082955050505081151515610c9457600080fd5b610ce8836000808973ffffffffffffffffffffffffffffffffffffffff1673ffffffffffffffffffffffffffffffffffffffff16815260200190815260200160002060000154612a1190919063ffffffff16565b6000808873ffffffffffffffffffffffffffffffffffffffff1673ffffffffffffffffffffffffffffffffffffffff16815260200190815260200160002060000181905550610d81856000808973ffffffffffffffffffffffffffffffffffffffff1673ffffffffffffffffffffffffffffffffffffffff16815260200190815260200160002060010154612a1190919063ffffffff16565b6000808873ffffffffffffffffffffffffffffffffffffffff1673ffffffffffffffffffffffffffffffffffffffff16815260200190815260200160002060010181905550610ddb83600354612a1190919063ffffffff16565b600381905550610df685600254612a1190919063ffffffff16565b600281905550610e046114d0565b6006819055508573ffffffffffffffffffffffffffffffffffffffff167f332ff6f9deafa8e3394664e234c5b6ecd51769ea7a7170a2bf25fa8687cf620e84878460405180848152602001838152602001828152602001935050505060405180910390a2600f60009054906101000a900473ffffffffffffffffffffffffffffffffffffffff1673ffffffffffffffffffffffffffffffffffffffff166108fc869081150290604051600060405180830381858888f193505050501515610eca57600080fd5b505050505050565b6000610ede83836113a2565b9050600081111515610eef57600080fd5b601254610f0782600454612a1190919063ffffffff16565b11151515610f1457600080fd5b610f1d83611268565b8211151515610f2b57600080fd5b610f7d82600160008673ffffffffffffffffffffffffffffffffffffffff1673ffffffffffffffffffffffffffffffffffffffff16815260200190815260200160002054612a1190919063ffffffff16565b600160008573ffffffffffffffffffffffffffffffffffffffff1673ffffffffffffffffffffffffffffffffffffffff16815260200190815260200160002081905550610fd582600254612a1190919063ffffffff16565b600281905550610ff082600354612a1190919063ffffffff16565b60038190555061100b81600454612a1190919063ffffffff16565b6004819055508273ffffffffffffffffffffffffffffffffffffffff167f9e9d071824fd57d062ca63fd8b786d8da48a6807eebbcb2d83f9e8d21398e28c8383604051808381526020018281526020019250505060405180910390a2600f60009054906101000a900473ffffffffffffffffffffffffffffffffffffffff1673ffffffffffffffffffffffffffffffffffffffff166108fc839081150290604051600060405180830381858888f1935050505015156110c957600080fd5b691733f6d7ed5d74f400006003541015156111e357426008819055506001600d60016101000a81548160ff021916908315150217905550600d60029054906101000a900473ffffffffffffffffffffffffffffffffffffffff1673ffffffffffffffffffffffffffffffffffffffff16632d28bb026008546040518263ffffffff167c010000000000000000000000000000000000000000000000000000000002815260040180828152602001915050600060405180830381600087803b151561119257600080fd5b6102c65a03f115156111a357600080fd5b5050507fb2bd7b6a6ed9f4f556a1cd6e7658a55ac01b7a9702b3ceca91ce51550a9e51446001604051808215151515815260200191505060405180910390a15b505050565b622b818081565b600e60009054906101000a900473ffffffffffffffffffffffffffffffffffffffff1673ffffffffffffffffffffffffffffffffffffffff163373ffffffffffffffffffffffffffffffffffffffff1614151561124b57600080fd5b80600d60006101000a81548160ff02191690831515021790555050565b600080600080600d60019054906101000a900460ff1615151561128a57600080fd5b600754421015801561129d575060085442105b15156112a857600080fd5b6112bf6004546012546129dd90919063ffffffff16565b92506112e0600254691733f6d7ed5d74f400006129dd90919063ffffffff16565b915060008060008773ffffffffffffffffffffffffffffffffffffffff1673ffffffffffffffffffffffffffffffffffffffff1681526020019081526020016000206001015411156113485761134160095484612a2f90919063ffffffff16565b9050611360565b61135d600a5484612a2f90919063ffffffff16565b90505b8181111561137057819350611374565b8093505b505050919050565b600a5481565b60006010544210158015611397575060085442105b905090565b60035481565b6000600d60019054906101000a900460ff161515156113c057600080fd5b60075442101580156113d3575060085442105b15156113de57600080fd5b60008060008573ffffffffffffffffffffffffffffffffffffffff1673ffffffffffffffffffffffffffffffffffffffff1681526020019081526020016000206001015411156114445761143d600954836129f690919063ffffffff16565b905061145c565b611459600a54836129f690919063ffffffff16565b90505b92915050565b60085481565b620186a081565b66038d7ea4c6800081565b600d60019054906101000a900460ff1681565b60006020528060005260406000206000915090508060000154908060010154905082565b60075481565b6611c37937e0800081565b691733f6d7ed5d74f4000081565b600080600d60019054906101000a900460ff161515156114ef57600080fd5b6010544210158015611502575060065442105b151561150d57600080fd5b6115ce6112f06115c06010546115b261158761154d606461153f600466038d7ea4c68000612a2f90919063ffffffff16565b6129f690919063ffffffff16565b6115796115676011546003546129f690919063ffffffff16565b620186a0612a2f90919063ffffffff16565b612a1190919063ffffffff16565b6115a46203a98066038d7ea4c68000612a2f90919063ffffffff16565b6129f690919063ffffffff16565b612a1190919063ffffffff16565b6129dd90919063ffffffff16565b9050600654811015156115e55760065491506115e9565b8091505b5090565b6000600d60019054906101000a900460ff1615151561160b57600080fd5b601054421015801561161e575060065442105b151561162957600080fd5b6116516064611643600b5485612a2f90919063ffffffff16565b6129f690919063ffffffff16565b9050919050565b600c5481565b60055481565b600f60009054906101000a900473ffffffffffffffffffffffffffffffffffffffff1681565b60065481565b600d60029054906101000a900473ffffffffffffffffffffffffffffffffffffffff1681565b600d60009054906101000a900460ff1681565b621baf8081565b60115481565b600080600d60019054906101000a900460ff161515156116f557600080fd5b6010544210158015611708575060065442105b151561171357600080fd5b61172f61171e612064565b6003546129f690919063ffffffff16565b905060115481101515611745576000915061175d565b61175a816011546129dd90919063ffffffff16565b91505b5090565b600d60009054906101000a900460ff1615151561177d57600080fd5b600d60019054906101000a900460ff1615151561179957600080fd5b60105442101580156117ac575060065442105b15156117b757600080fd5b6611c37937e0800034101515156117cd57600080fd5b6117d73334610bdc565b565b6305f5e10081565b60105481565b600f81565b600080600080600080600d60009054906101000a900460ff1615151561181157600080fd5b600854421015151561182257600080fd5b8660008060008373ffffffffffffffffffffffffffffffffffffffff1673ffffffffffffffffffffffffffffffffffffffff168152602001908152602001600020600001541415806118b457506000600160008373ffffffffffffffffffffffffffffffffffffffff1673ffffffffffffffffffffffffffffffffffffffff1681526020019081526020016000205414155b15156118bf57600080fd5b600d60019054906101000a900460ff1615156119d3576001600d60016101000a81548160ff021916908315150217905550600d60029054906101000a900473ffffffffffffffffffffffffffffffffffffffff1673ffffffffffffffffffffffffffffffffffffffff16632d28bb026008546040518263ffffffff167c010000000000000000000000000000000000000000000000000000000002815260040180828152602001915050600060405180830381600087803b151561198257600080fd5b6102c65a03f1151561199357600080fd5b5050507fb2bd7b6a6ed9f4f556a1cd6e7658a55ac01b7a9702b3ceca91ce51550a9e51446000604051808215151515815260200191505060405180910390a15b60008060008a73ffffffffffffffffffffffffffffffffffffffff1673ffffffffffffffffffffffffffffffffffffffff16815260200190815260200160002060000154141515611b2057600196506000808973ffffffffffffffffffffffffffffffffffffffff1673ffffffffffffffffffffffffffffffffffffffff168152602001908152602001600020600001549550611a7b600954876129f690919063ffffffff16565b94506000600c541115611ab357611ab06064611aa2600c5488612a2f90919063ffffffff16565b6129f690919063ffffffff16565b93505b611ac886600554612a1190919063ffffffff16565b6005819055506000808973ffffffffffffffffffffffffffffffffffffffff1673ffffffffffffffffffffffffffffffffffffffff168152602001908152602001600020600080820160009055600182016000905550505b6000600160008a73ffffffffffffffffffffffffffffffffffffffff1673ffffffffffffffffffffffffffffffffffffffff16815260200190815260200160002054141515611c4457600160008973ffffffffffffffffffffffffffffffffffffffff1673ffffffffffffffffffffffffffffffffffffffff1681526020019081526020016000205492508615611bcd57611bc6600954846129f690919063ffffffff16565b9150611be5565b611be2600a54846129f690919063ffffffff16565b91505b611bfa83600554612a1190919063ffffffff16565b600581905550600160008973ffffffffffffffffffffffffffffffffffffffff1673ffffffffffffffffffffffffffffffffffffffff168152602001908152602001600020600090555b611c6982611c5b8688612a1190919063ffffffff16565b612a1190919063ffffffff16565b9450600d60029054906101000a900473ffffffffffffffffffffffffffffffffffffffff1673ffffffffffffffffffffffffffffffffffffffff166323b872dd600e60009054906101000a900473ffffffffffffffffffffffffffffffffffffffff168a886000604051602001526040518463ffffffff167c0100000000000000000000000000000000000000000000000000000000028152600401808473ffffffffffffffffffffffffffffffffffffffff1673ffffffffffffffffffffffffffffffffffffffff1681526020018373ffffffffffffffffffffffffffffffffffffffff1673ffffffffffffffffffffffffffffffffffffffff1681526020018281526020019350505050602060405180830381600087803b1515611d8e57600080fd5b6102c65a03f11515611d9f57600080fd5b505050604051805190501515611db457600080fd5b8773ffffffffffffffffffffffffffffffffffffffff167fd8a5cca1cc817d045ce0d6e405348bae3f2558baca99f954815924542f8e5164866040518082815260200191505060405180910390a26003546005541415611ed457600d60029054906101000a900473ffffffffffffffffffffffffffffffffffffffff1673ffffffffffffffffffffffffffffffffffffffff166344df8e706040518163ffffffff167c0100000000000000000000000000000000000000000000000000000000028152600401600060405180830381600087803b1515611e9357600080fd5b6102c65a03f11515611ea457600080fd5b5050507fc15f68f0a72806ff3f8bf2435385a67c4c22413f1c7931ef7bcea718e6ffcf0360405160405180910390a15b5050505050505050565b60016020528060005260406000206000915090505481565b600e60009054906101000a900473ffffffffffffffffffffffffffffffffffffffff1681565b6000600d60019054906101000a900460ff16151515611f3a57600080fd5b6010544210158015611f4d575060065442105b1515611f5857600080fd5b611f88600354611f7a611f69612064565b601154612a2f90919063ffffffff16565b6129dd90919063ffffffff16565b905090565b600e60009054906101000a900473ffffffffffffffffffffffffffffffffffffffff1673ffffffffffffffffffffffffffffffffffffffff163373ffffffffffffffffffffffffffffffffffffffff16141515611fe957600080fd5b600f60009054906101000a900473ffffffffffffffffffffffffffffffffffffffff1673ffffffffffffffffffffffffffffffffffffffff166108fc3073ffffffffffffffffffffffffffffffffffffffff16319081150290604051600060405180830381858888f19350505050151561206257600080fd5b565b6000600d60019054906101000a900460ff1615151561208257600080fd5b6010544210158015612095575060065442105b15156120a057600080fd5b61214b620186a061213d6120d860646120ca600466038d7ea4c68000612a2f90919063ffffffff16565b6129f690919063ffffffff16565b61212f6121046112f06120f6601054426129dd90919063ffffffff16565b612a1190919063ffffffff16565b6121216203a98066038d7ea4c68000612a2f90919063ffffffff16565b6129f690919063ffffffff16565b6129dd90919063ffffffff16565b6129f690919063ffffffff16565b905090565b600f81565b60095481565b60025481565b600d60009054906101000a900460ff1615151561217d57600080fd5b600854421015151561218e57600080fd5b3360008060008373ffffffffffffffffffffffffffffffffffffffff1673ffffffffffffffffffffffffffffffffffffffff1681526020019081526020016000206000015414158061222057506000600160008373ffffffffffffffffffffffffffffffffffffffff1673ffffffffffffffffffffffffffffffffffffffff1681526020019081526020016000205414155b151561222b57600080fd5b612234336117ec565b50565b600080600080600080600d60019054906101000a900460ff1615151561225c57600080fd5b601054421015801561226f575060065442105b151561227a57600080fd5b612283876115ed565b925061228d612064565b93506122a28388612a1190919063ffffffff16565b95506122ac6116d6565b91506122c184876129f690919063ffffffff16565b905081811194505050509193909250565b600d60009054906101000a900460ff161515156122ee57600080fd5b600d60019054906101000a900460ff1615151561230a57600080fd5b601054421015801561231d575060065442105b151561232857600080fd5b6611c37937e08000341015151561233e57600080fd5b600073ffffffffffffffffffffffffffffffffffffffff168173ffffffffffffffffffffffffffffffffffffffff161415151561237a57600080fd5b6123848134610bdc565b50565b60125481565b60045481565b6000600d60009054906101000a900460ff161515156123b157600080fd5b600d60019054906101000a900460ff161515156123cd57600080fd5b60065442101515156123de57600080fd5b60006009541415612881576124006011546003546129f690919063ffffffff16565b6009819055507f27dac5caa7e3cc5a75e6ec8aaa40b8434e37984fe81052743f5945a7b7bf61996009546040518082815260200191505060405180910390a1691733f6d7ed5d74f4000060035410151561256757600f600c819055506006546008819055506001600d60016101000a81548160ff021916908315150217905550600d60029054906101000a900473ffffffffffffffffffffffffffffffffffffffff1673ffffffffffffffffffffffffffffffffffffffff16632d28bb026008546040518263ffffffff167c010000000000000000000000000000000000000000000000000000000002815260040180828152602001915050600060405180830381600087803b151561251257600080fd5b6102c65a03f1151561252357600080fd5b5050507fb2bd7b6a6ed9f4f556a1cd6e7658a55ac01b7a9702b3ceca91ce51550a9e51446001604051808215151515815260200191505060405180910390a1612880565b6305f5e10060095410151561261c576125b36125a260646125946014600954612a2f90919063ffffffff16565b6129f690919063ffffffff16565b600954612a1190919063ffffffff16565b600a81905550426007819055506125d8622b8180600754612a1190919063ffffffff16565b6008819055507f8d746be2de98e7f318593179f8fc87a9fb29837bf0b64f8cd58ae4018a8db5ba600a546040518082815260200191505060405180910390a161287f565b6305f5e10060095410801561263357506000600954115b15612743576006546008819055506001600d60016101000a81548160ff021916908315150217905550600d60029054906101000a900473ffffffffffffffffffffffffffffffffffffffff1673ffffffffffffffffffffffffffffffffffffffff16632d28bb026008546040518263ffffffff167c010000000000000000000000000000000000000000000000000000000002815260040180828152602001915050600060405180830381600087803b15156126ee57600080fd5b6102c65a03f115156126ff57600080fd5b5050507fb2bd7b6a6ed9f4f556a1cd6e7658a55ac01b7a9702b3ceca91ce51550a9e51446000604051808215151515815260200191505060405180910390a161287e565b60016009819055506006546008819055506001600d60016101000a81548160ff021916908315150217905550600d60029054906101000a900473ffffffffffffffffffffffffffffffffffffffff1673ffffffffffffffffffffffffffffffffffffffff16632d28bb026008546040518263ffffffff167c010000000000000000000000000000000000000000000000000000000002815260040180828152602001915050600060405180830381600087803b151561280157600080fd5b6102c65a03f1151561281257600080fd5b5050507fb2bd7b6a6ed9f4f556a1cd6e7658a55ac01b7a9702b3ceca91ce51550a9e51446000604051808215151515815260200191505060405180910390a17fc15f68f0a72806ff3f8bf2435385a67c4c22413f1c7931ef7bcea718e6ffcf0360405160405180910390a15b5b5b5b600954905090565b600d60009054906101000a900460ff161515156128a557600080fd5b600d60019054906101000a900460ff161515156128c157600080fd5b60075442101580156128d4575060085442105b15156128df57600080fd5b6611c37937e0800034101515156128f557600080fd5b6128ff3334610ed2565b565b600b5481565b600d60009054906101000a900460ff1615151561292357600080fd5b600d60019054906101000a900460ff1615151561293f57600080fd5b6007544210158015612952575060085442105b151561295d57600080fd5b6611c37937e08000341015151561297357600080fd5b600073ffffffffffffffffffffffffffffffffffffffff168173ffffffffffffffffffffffffffffffffffffffff16141515156129af57600080fd5b6129b98134610ed2565b50565b600060085442101580156129d35750600554600354145b905090565b601481565b60008282111515156129eb57fe5b818303905092915050565b6000808284811515612a0457fe5b0490508091505092915050565b6000808284019050838110151515612a2557fe5b8091505092915050565b6000806000841415612a445760009150612a63565b8284029050828482811515612a5557fe5b04141515612a5f57fe5b8091505b50929150505600a165627a7a72305820309fe54c937d1d5c62b6599e53ae7bc2f1453396cd7e8a6fd5f018178dd28a8c0029",
  "source": "pragma solidity ^0.4.18;\r\n\r\n/**\r\n *  @title Smart City Crowdsale contract http://www.smartcitycoin.io\r\n */\r\n\r\nimport \"./SafeMath.sol\";\r\n\r\n\r\ncontract SmartCityToken {\r\n    function transferFrom(address _from, address _to, uint256 _value) public returns(bool success) {}\r\n    \r\n    function setTokenStart(uint256 _newStartTime) public {}\r\n\r\n    function burn() public {}\r\n}\r\n\r\ncontract SmartCityCrowdsale {\r\n    using SafeMath for uint256;\r\n\r\n    // State\r\n\r\n    struct Account {\r\n        uint256 accounted;   // received amount and bonus\r\n        uint256 received;    // received amount\r\n    }\r\n\r\n    /// Crowdsale participants\r\n    mapping (address => Account) public buyins;\r\n\r\n    /// Balances of Fixed Price sale participants.\r\n    mapping(address => uint256) public purchases;\r\n\r\n    /// Total amount of ether received.\r\n    uint256 public totalReceived = 0;\r\n\r\n    /// Total amount of ether accounted.\r\n    uint256 public totalAccounted = 0;\r\n\r\n    /// Total tokens purchased during Phase 2.\r\n    uint256 public tokensPurchased = 0;\r\n\r\n    /// Total amount of ether which has been finalised.\r\n    uint256 public totalFinalised = 0;\r\n    \r\n    /// Phase 1 end time.\r\n    uint256 public firstPhaseEndTime;\r\n    \r\n\t/// Phase 2 start time.\r\n    uint256 public secondPhaseStartTime;\r\n    \r\n    /// Campaign end time.\r\n    uint256 public endTime;\r\n\r\n    /// The price per token aftre Phase 1. Works also as an effective price in Phase 2 for Phase 1 participants.\r\n    uint256 public auctionEndPrice;\r\n    \r\n\t/// The price for token within Phase 2 which is effective for those who did not participate in Phase 1\r\n    uint256 public fixedPrice;\r\n\r\n    /// The current percentage of bonus.\r\n    uint256 public currentBonus = 15;\r\n\r\n\t/// Bonus that will be applied to purchases if Target is reached in Phase 1. Initially zero.\r\n    uint256 public auctionSuccessBonus = 0;\r\n    \r\n    /// Must be false for any public function to be called.\r\n    bool public paused = false;\r\n    \r\n    /// Campaign is ended\r\n    bool public campaignEnded = false;\r\n\r\n    // Constants after constructor:\r\n\r\n    /// CITY token contract.\r\n    SmartCityToken public tokenContract;\r\n\r\n    /// The owner address.\r\n    address public owner;\r\n\r\n    /// The wallet address.\r\n    address public wallet;\r\n\r\n    /// Sale start time.\r\n    uint256 public startTime;\r\n\r\n    /// Amount of tokens allocated for Phase 1.\r\n\t/// Once totalAccounted / currentPrice is greater than this value, Phase 1 ends.\r\n    uint256 public tokenCapPhaseOne;\r\n    \r\n    /// Amount of tokens allocated for Phase 2\r\n    uint256 public tokenCapPhaseTwo;\r\n\r\n\r\n    // Static constants:\r\n\r\n\t/// Target\r\n    uint256 constant public FUNDING_GOAL = 109573 ether;\r\n    \r\n\t/// Minimum token price after Phase 1 for Phase 2 to be started.\r\n    uint256 constant public TOKEN_MIN_PRICE_THRESHOLD = 100000000; // 0,00001 ETH per 1 CITY\r\n    \r\n\t/// Maximum duration of Phase 1\r\n    uint256 constant public FIRST_PHASE_MAX_SPAN = 21 days;\r\n    \r\n\t/// Maximum duration of Phase 2\r\n    uint256 constant public SECOND_PHASE_MAX_SPAN = 33 days;\r\n    \r\n    /// Minimum investment amount\r\n    uint256 constant public DUST_LIMIT = 5 finney;\r\n\r\n    /// Number of days from Phase 1 beginning when bonus is available. Bonus percentage drops by 1 percent a day.\r\n    uint256 constant public BONUS_DURATION = 15;\r\n\t\r\n\t/// Percentage of bonus that will be applied to all purchases if Target is reached in Phase 1\r\n\tuint256 constant public SUCCESS_BONUS = 15;\r\n    \r\n    /// token price in Phase 2 is by 20 % higher when resulting auction price\r\n    /// for those who did not participate in auction\r\n    uint256 constant public SECOND_PHASE_PRICE_FACTOR = 20;\r\n\r\n\t/// 1e15\r\n    uint256 constant public FACTOR = 1 finney;\r\n\r\n    /// Divisor of the token.\r\n    uint256 constant public DIVISOR = 100000;\r\n\r\n    // Events\r\n\r\n    /// Buyin event.\r\n    event Buyin(address indexed receiver, uint256 accounted, uint256 received, uint256 price);\r\n\r\n    /// Phase 1 just ended.\r\n    event PhaseOneEnded(uint256 price);\r\n    \r\n    /// Phase 2 is engagaed.\r\n    event PhaseTwoStared(uint256 fixedPrice);\r\n\r\n\t/// Investement event.\r\n    event Invested(address indexed receiver, uint256 received, uint256 tokens);\r\n\r\n    /// The campaign just ended.\r\n    event Ended(bool goalReached);\r\n\r\n    /// Finalised the purchase for receiver.\r\n    event Finalised(address indexed receiver, uint256 tokens);\r\n\r\n    /// Campaign is over. All accounts finalised.\r\n    event Retired();\r\n\t\r\n\t// Modifiers\r\n\t\r\n\t/// Ensure the sale is ended.\r\n    modifier when_ended { require (now >= endTime); _; }\r\n\r\n    /// Ensure sale is not paused.\r\n    modifier when_not_halted { require (!paused); _; }\r\n\r\n    /// Ensure `_receiver` is a participant.\r\n    modifier only_investors(address _receiver) { require (buyins[_receiver].accounted != 0 || purchases[_receiver] != 0); _; }\r\n\r\n    /// Ensure sender is owner.\r\n    modifier only_owner { require (msg.sender == owner); _; }\r\n    \r\n    /// Ensure sale is in progress.\r\n    modifier when_active { require (!campaignEnded); _;}\r\n\r\n    /// Ensure phase 1 is in progress\r\n    modifier only_in_phase_1 { require (now >= startTime && now < firstPhaseEndTime); _; }\r\n    \r\n    /// Ensure phase 1 is over\r\n    modifier after_phase_1 { require (now >= firstPhaseEndTime); _; }\r\n\r\n    /// Ensure phase 2 is in progress\r\n    modifier only_in_phase_2 { require (now >= secondPhaseStartTime && now < endTime); _; }\r\n\r\n    /// Ensure the value sent is above threshold.\r\n    modifier reject_dust { require ( msg.value >= DUST_LIMIT ); _; }\r\n\r\n    // Constructor\r\n\r\n    function SmartCityCrowdsale(\r\n        address _tokenAddress,\r\n        address _owner,\r\n        address _walletAddress,\r\n        uint256 _startTime,\r\n        uint256 _tokenCapPhaseOne,\r\n        uint256 _tokenCapPhaseTwo\r\n    )\r\n        public\r\n    {\r\n        tokenContract = SmartCityToken(_tokenAddress);\r\n        wallet = _walletAddress;\r\n        owner = _owner;\r\n        startTime = _startTime;\r\n        firstPhaseEndTime = startTime.add(FIRST_PHASE_MAX_SPAN);\r\n        secondPhaseStartTime = 253402300799; // initialise by setting to 9999/12/31\r\n        endTime = secondPhaseStartTime.add(SECOND_PHASE_MAX_SPAN);\r\n        tokenCapPhaseOne = _tokenCapPhaseOne;\r\n        tokenCapPhaseTwo = _tokenCapPhaseTwo;\r\n    }\r\n\r\n    /// The default fallback function\r\n    /// Calls buyin or invest function depending on current campaign phase\r\n    /// Throws if campaign has already ended\r\n    function()\r\n        public\r\n        payable\r\n        when_not_halted\r\n        when_active\r\n    {\r\n        if (now >= startTime && now < firstPhaseEndTime) { // phase 1 is ongoing\r\n            _buyin(msg.sender, msg.value);\r\n        }\r\n        else {\r\n            _invest(msg.sender, msg.value);\r\n        }\r\n    }\r\n\r\n\t// Phase 1 functions\r\n\r\n    /// buyin function.\r\n    function buyin()\r\n        public\r\n        payable\r\n        when_not_halted\r\n        when_active\r\n        only_in_phase_1\r\n        reject_dust\r\n    {\r\n        _buyin(msg.sender, msg.value);\r\n    }\r\n    \r\n    ///  buyinAs function. takes the receiver address as an argument\r\n    function buyinAs(address _receiver)\r\n        public\r\n        payable\r\n        when_not_halted\r\n        when_active\r\n        only_in_phase_1\r\n        reject_dust\r\n    {\r\n        require (_receiver != address(0));\r\n        _buyin(_receiver, msg.value);\r\n    }\r\n    \r\n    /// internal buyin functionality\r\n    function _buyin(address _receiver, uint256 _value)\r\n        internal\r\n    {\r\n        if (currentBonus > 0) {\r\n            uint256 daysSinceStart = (now.sub(startTime)).div(86400); // # of days\r\n\r\n            if (daysSinceStart < BONUS_DURATION &&\r\n                BONUS_DURATION.sub(daysSinceStart) != currentBonus) {\r\n                currentBonus = BONUS_DURATION.sub(daysSinceStart);\r\n            }\r\n            if (daysSinceStart >= BONUS_DURATION) {\r\n                currentBonus = 0;\r\n            }\r\n        }\r\n\r\n        uint256 accounted;\r\n        bool refund;\r\n        uint256 price;\r\n\r\n        (accounted, refund, price) = theDeal(_value);\r\n\r\n        // effective cap should not be exceeded, throw\r\n        require (!refund);\r\n\r\n        // change state\r\n        buyins[_receiver].accounted = buyins[_receiver].accounted.add(accounted);\r\n        buyins[_receiver].received = buyins[_receiver].received.add(_value);\r\n        totalAccounted = totalAccounted.add(accounted);\r\n        totalReceived = totalReceived.add(_value);\r\n        firstPhaseEndTime = calculateEndTime();\r\n\r\n        Buyin(_receiver, accounted, _value, price);\r\n\r\n        // send to wallet\r\n        wallet.transfer(_value);\r\n    }\r\n\r\n\t/// The current end time of the sale assuming that nobody else buys in.\r\n    function calculateEndTime()\r\n        public\r\n        constant\r\n        when_active\r\n        only_in_phase_1\r\n        returns (uint256)\r\n    {\r\n\t\tuint256 res = (FACTOR.mul(240000).div(DIVISOR.mul(totalAccounted.div(tokenCapPhaseOne)).add(FACTOR.mul(4).div(100)))).add(startTime).sub(4848);\r\n\r\n        if (res >= firstPhaseEndTime) {\r\n            return firstPhaseEndTime;\r\n        }\r\n        else {\r\n            return res;\r\n        }\r\n    }\r\n    \r\n\r\n    /// The current price for a token\r\n    function currentPrice()\r\n        public\r\n        constant\r\n        when_active\r\n        only_in_phase_1\r\n        returns (uint256 weiPerIndivisibleTokenPart)\r\n    {\r\n        return ((FACTOR.mul(240000).div(now.sub(startTime).add(4848))).sub(FACTOR.mul(4).div(100))).div(DIVISOR);\r\n    }\r\n\r\n    /// Returns the total tokens which can be purchased right now.\r\n    function tokensAvailable()\r\n        public\r\n        constant\r\n        when_active\r\n        only_in_phase_1\r\n        returns (uint256 tokens)\r\n    {\r\n        uint256 _currentCap = totalAccounted.div(currentPrice());\r\n        if (_currentCap >= tokenCapPhaseOne) {\r\n            return 0;\r\n        }\r\n        return tokenCapPhaseOne.sub(_currentCap);\r\n    }\r\n\r\n    /// The largest purchase than can be done right now. For informational puproses only\r\n    function maxPurchase()\r\n        public\r\n        constant\r\n        when_active\r\n        only_in_phase_1\r\n        returns (uint256 spend)\r\n    {\r\n        return tokenCapPhaseOne.mul(currentPrice()).sub(totalAccounted);\r\n    }\r\n\r\n    /// Returns the number of tokens available per given price.\r\n\t/// If this number exceeds tokens being currently available, returns refund = true\r\n    function theDeal(uint256 _value)\r\n        public\r\n        constant\r\n        when_active\r\n        only_in_phase_1\r\n        returns (uint256 accounted, bool refund, uint256 price)\r\n    {\r\n        uint256 _bonus = auctionBonus(_value);\r\n\r\n        price = currentPrice();\r\n        accounted = _value.add(_bonus);\r\n\r\n        uint256 available = tokensAvailable();\r\n        uint256 tokens = accounted.div(price);\r\n        refund = (tokens > available);\r\n    }\r\n\r\n    /// Returns bonus for given amount\r\n    function auctionBonus(uint256 _value)\r\n        public\r\n        constant\r\n        when_active\r\n        only_in_phase_1\r\n        returns (uint256 extra)\r\n    {\r\n        return _value.mul(currentBonus).div(100);\r\n    }\r\n\r\n\t// After Phase 1\r\n\t\r\n    /// Checks the results of the first phase\r\n    /// Changes state only once\r\n    function finaliseFirstPhase()\r\n        public\r\n        when_not_halted\r\n        when_active\r\n        after_phase_1\r\n        returns(uint256)\r\n    {\r\n        if (auctionEndPrice == 0) {\r\n            auctionEndPrice = totalAccounted.div(tokenCapPhaseOne);\r\n            PhaseOneEnded(auctionEndPrice);\r\n\r\n            // check if second phase should be engaged\r\n            if (totalAccounted >= FUNDING_GOAL ) {\r\n                // funding goal is reached: phase 2 is not engaged, all auction participants receive additional bonus, campaign is ended\r\n                auctionSuccessBonus = SUCCESS_BONUS;\r\n                endTime = firstPhaseEndTime;\r\n                campaignEnded = true;\r\n                \r\n                tokenContract.setTokenStart(endTime);\r\n\r\n                Ended(true);\r\n            }\r\n            \r\n            else if (auctionEndPrice >= TOKEN_MIN_PRICE_THRESHOLD) {\r\n                // funding goal is not reached, auctionEndPrice is above or equal to threshold value: engage phase 2\r\n                fixedPrice = auctionEndPrice.add(auctionEndPrice.mul(SECOND_PHASE_PRICE_FACTOR).div(100));\r\n                secondPhaseStartTime = now;\r\n                endTime = secondPhaseStartTime.add(SECOND_PHASE_MAX_SPAN);\r\n\r\n                PhaseTwoStared(fixedPrice);\r\n            }\r\n            else if (auctionEndPrice < TOKEN_MIN_PRICE_THRESHOLD && auctionEndPrice > 0){\r\n                // funding goal is not reached, auctionEndPrice is below threshold value: phase 2 is not engaged, campaign is ended\r\n                endTime = firstPhaseEndTime;\r\n                campaignEnded = true;\r\n\r\n                tokenContract.setTokenStart(endTime);\r\n\r\n                Ended(false);\r\n            }\r\n            else { // no one came, we are all alone in this world :(\r\n                auctionEndPrice = 1 wei;\r\n                endTime = firstPhaseEndTime;\r\n                campaignEnded = true;\r\n\r\n                tokenContract.setTokenStart(endTime);\r\n\r\n                Ended(false);\r\n\r\n                Retired();\r\n            }\r\n        }\r\n        \r\n        return auctionEndPrice;\r\n    }\r\n\r\n    // Phase 2 functions\r\n\r\n    /// Make an investment during second phase\r\n    function invest()\r\n        public\r\n        payable\r\n        when_not_halted\r\n        when_active\r\n        only_in_phase_2\r\n        reject_dust\r\n    {\r\n        _invest(msg.sender, msg.value);\r\n    }\r\n    \r\n    ///\r\n    function investAs(address _receiver)\r\n        public\r\n        payable\r\n        when_not_halted\r\n        when_active\r\n        only_in_phase_2\r\n        reject_dust\r\n    {\r\n        require (_receiver != address(0));\r\n        _invest(_receiver, msg.value);\r\n    }\r\n    \r\n    /// internal invest functionality\r\n    function _invest(address _receiver, uint256 _value)\r\n        internal\r\n    {\r\n        uint256 tokensCnt = getTokens(_receiver, _value); \r\n\r\n        require(tokensCnt > 0);\r\n        require(tokensPurchased.add(tokensCnt) <= tokenCapPhaseTwo); // should not exceed available tokens\r\n\t\trequire(_value <= maxTokenPurchase(_receiver)); // should not go above target\r\n\r\n        purchases[_receiver] = purchases[_receiver].add(_value);\r\n        totalReceived = totalReceived.add(_value);\r\n        totalAccounted = totalAccounted.add(_value);\r\n        tokensPurchased = tokensPurchased.add(tokensCnt);\r\n\r\n\t\tInvested(_receiver, _value, tokensCnt);\r\n\t\t\r\n        // send to wallet\r\n        wallet.transfer(_value);\r\n\r\n        // check if we've reached the target\r\n        if (totalAccounted >= FUNDING_GOAL) {\r\n            endTime = now;\r\n\t\t\tcampaignEnded = true;\r\n\t\t\t\r\n\t\t\ttokenContract.setTokenStart(endTime);\r\n\t\t\t\r\n\t\t\tEnded(true);\r\n        }\r\n    }\r\n    \r\n\t/// Tokens currently available for purchase in Phase 2\r\n    function getTokens(address _receiver, uint256 _value)\r\n        public\r\n        constant\r\n        when_active\r\n        only_in_phase_2\r\n        returns(uint256 tokensCnt)\r\n    {\r\n        // auction participants have better price in second phase\r\n        if (buyins[_receiver].received > 0) {\r\n            tokensCnt = _value.div(auctionEndPrice);\r\n        }\r\n        else {\r\n            tokensCnt = _value.div(fixedPrice);\r\n        }\r\n\r\n    }\r\n\t\r\n\t/// Maximum current purchase amount in Phase 2\r\n\tfunction maxTokenPurchase(address _receiver)\r\n        public\r\n        constant\r\n        when_active\r\n        only_in_phase_2\r\n        returns(uint256 spend)\r\n    {\r\n\t\tuint256 availableTokens = tokenCapPhaseTwo.sub(tokensPurchased);\r\n\t\tuint256 fundingGoalOffset = FUNDING_GOAL.sub(totalReceived);\r\n\t\tuint256 maxInvestment;\r\n\t\t\r\n        if (buyins[_receiver].received > 0) {\r\n\t\t\tmaxInvestment = availableTokens.mul(auctionEndPrice);\r\n        }\r\n        else {\r\n\t\t\tmaxInvestment = availableTokens.mul(fixedPrice);\r\n        }\r\n\r\n\t\tif (maxInvestment > fundingGoalOffset) {\r\n\t\t\treturn fundingGoalOffset;\r\n\t\t}\r\n\t\telse {\r\n\t\t\treturn maxInvestment;\r\n\t\t}\r\n    }\r\n\r\n\t// After sale end\r\n\t\r\n\t/// Finalise purchase: transfers the tokens to caller address\r\n    function finalise()\r\n        public\r\n        when_not_halted\r\n        when_ended\r\n        only_investors(msg.sender)\r\n    {\r\n        finaliseAs(msg.sender);\r\n    }\r\n\r\n    /// Finalise purchase for address provided: transfers the tokens purchased by given participant to their address\r\n    function finaliseAs(address _receiver)\r\n        public\r\n        when_not_halted\r\n        when_ended\r\n        only_investors(_receiver)\r\n    {\r\n        bool auctionParticipant;\r\n        uint256 total;\r\n        uint256 tokens;\r\n        uint256 bonus;\r\n        uint256 totalFixed;\r\n        uint256 tokensFixed;\r\n\r\n\t\t// first time calling finalise after phase 2 has ended but target was not reached\r\n\t\tif (!campaignEnded) {\r\n\t\t\tcampaignEnded = true;\r\n\t\t\t\r\n\t\t\ttokenContract.setTokenStart(endTime);\r\n\t\t\t\r\n\t\t\tEnded(false);\r\n\t\t}\r\n\r\n        if (buyins[_receiver].accounted != 0) {\r\n            auctionParticipant = true;\r\n\r\n            total = buyins[_receiver].accounted;\r\n            tokens = total.div(auctionEndPrice);\r\n            \r\n            if (auctionSuccessBonus > 0) {\r\n                bonus = tokens.mul(auctionSuccessBonus).div(100);\r\n            }\r\n            totalFinalised = totalFinalised.add(total);\r\n            delete buyins[_receiver];\r\n        }\r\n        \r\n        if (purchases[_receiver] != 0) {\r\n            totalFixed = purchases[_receiver];\r\n            \r\n            if (auctionParticipant) {\r\n                tokensFixed = totalFixed.div(auctionEndPrice);\r\n            }\r\n            else {\r\n                tokensFixed = totalFixed.div(fixedPrice);\r\n            }\r\n            totalFinalised = totalFinalised.add(totalFixed);\r\n            delete purchases[_receiver];\r\n        }\r\n\r\n        tokens = tokens.add(bonus).add(tokensFixed);\r\n\r\n        require (tokenContract.transferFrom(owner, _receiver, tokens));\r\n\r\n        Finalised(_receiver, tokens);\r\n\r\n        if (totalFinalised == totalAccounted) {\r\n            tokenContract.burn(); // burn all unsold tokens\r\n            Retired();\r\n        }\r\n    }\r\n\r\n    // Owner functions\r\n\r\n    /// Emergency function to pause buy-in and finalisation.\r\n    function setPaused(bool _paused) public only_owner { paused = _paused; }\r\n\r\n    /// Emergency function to drain the contract of any funds.\r\n    function drain() public only_owner { wallet.transfer(this.balance); }\r\n    \r\n    /// Returns true if the campaign is in progress.\r\n    function isActive() public constant returns (bool) { return now >= startTime && now < endTime; }\r\n\r\n    /// Returns true if all purchases are finished.\r\n    function allFinalised() public constant returns (bool) { return now >= endTime && totalAccounted == totalFinalised; }\r\n}\r\n\r\n    /**\r\n    *            CITY token by www.SmartCityCoin.io\r\n    * \r\n    *          .ossssss:                      `+sssss`      \r\n    *         ` +ssssss+` `.://++++++//:.`  .osssss+       \r\n    *            /sssssssssssssssssssssssss+ssssso`        \r\n    *             -sssssssssssssssssssssssssssss+`         \r\n    *            .+sssssssss+:--....--:/ossssssss+.        \r\n    *          `/ssssssssssso`         .sssssssssss/`      \r\n    *         .ossssss+sssssss-       :sssss+:ossssso.     \r\n    *        `ossssso. .ossssss:    `/sssss/  `/ssssss.    \r\n    *        ossssso`   `+ssssss+` .osssss:     /ssssss`   \r\n    *       :ssssss`      /sssssso:ssssso.       +o+/:-`   \r\n    *       osssss+        -sssssssssss+`                  \r\n    *       ssssss:         .ossssssss/                    \r\n    *       osssss/          `+ssssss-                     \r\n    *       /ssssso           :ssssss                      \r\n    *       .ssssss-          :ssssss                      \r\n    *        :ssssss-         :ssssss          `           \r\n    *         /ssssss/`       :ssssss        `/s+:`        \r\n    *          :sssssso:.     :ssssss      ./ssssss+`      \r\n    *           .+ssssssso/-.`:ssssss``.-/osssssss+.       \r\n    *             .+ssssssssssssssssssssssssssss+-         \r\n    *               `:+ssssssssssssssssssssss+:`           \r\n    *                  `.:+osssssssssssso+:.`              \r\n    *                        `/ssssss.`                    \r\n    *                         :ssssss                      \r\n    */",
  "sourcePath": "D:\\dev\\solidity\\smart-city-token\\contracts\\SmartCityCrowdsale.sol",
  "compiler": {
    "name": "solc",
    "version": "0.4.19+commit.c4cbbb05.Emscripten.clang"
  },
  "schemaVersion": "2.0.0",
  "updatedAt": "2018-05-01T22:13:43.369Z"
}